:100000000C9462000C948A000C948A000C948A0070
:100010000C948A000C948A000C948A000C948A0038
:100020000C948A000C948A000C948A000C948A0028
:100030000C948A000C948A000C948A000C948A0018
:100040000C94B1030C948A000C948A000C948A00DE
:100050000C948A000C948A000C948A000C948A00F8
:100060000C948A000C948A000000000024002700F1
:100070002A0000000000250028002B0000000000DE
:1000800023002600290004040404040404040202DA
:100090000202020203030303030301020408102007
:1000A0004080010204081020010204081020000012
:1000B0000008000201000003040700000000000027
:1000C0000000CC0511241FBECFEFD8E0DEBFCDBFAE
:1000D00011E0A0E0B1E0E6EFFEE002C005900D9275
:1000E000A239B107D9F721E0A2E9B1E001C01D9220
:1000F000A03CB207E1F710E0C2E6D0E004C02197CF
:10010000FE010E947307C136D107C9F70E94FB03A5
:100110000C9479070C940000833081F028F481302E
:1001200099F08230A9F008958730A9F08830C9F09D
:100130008430B1F4809180008F7D03C08091800075
:100140008F7780938000089584B58F7784BD08955C
:1001500084B58F7DFBCF8091B0008F778093B00006
:1001600008958091B0008F7DF9CFCF93DF93282F32
:1001700030E0F901E255FF4F8491F901E656FF4F57
:10018000D491F901EA57FF4FC491CC23A1F081111A
:100190000E948C00EC2FF0E0EE0FFF1FE458FF4FA1
:1001A000A591B491EC91ED2381E090E009F480E019
:1001B000DF91CF91089580E090E0FACF1F93CF9325
:1001C000DF93282F30E0F901E255FF4F8491F901C8
:1001D000E656FF4FD491F901EA57FF4FC491CC2363
:1001E000A9F0162F81110E948C00EC2FF0E0EE0F89
:1001F000FF1FEE58FF4FA591B4918FB7F894EC9183
:10020000111108C0D095DE23DC938FBFDF91CF9111
:100210001F910895DE2BF8CFCF93DF9390E0FC0180
:10022000E656FF4F24918A579F4FFC018491882303
:10023000D1F090E0880F991FFC01E859FF4FA5917C
:10024000B491FC01EE58FF4FC591D49161110EC0DD
:100250009FB7F8948C91E22FE0958E238C932881A0
:10026000E223E8839FBFDF91CF9108958FB7F89481
:10027000EC91E22BEC938FBFF6CF8E50806480938D
:100280007C0080917A00806480937A0080917A006B
:1002900086FDFCCF809178009091790008953FB75A
:1002A000F8948091A4019091A501A091A601B0912C
:1002B000A70126B5A89B05C02F3F19F00196A11DE7
:1002C000B11D3FBFBA2FA92F982F8827BC01CD01A0
:1002D000620F711D811D911D42E0660F771F881FFF
:1002E000991F4A95D1F708958F929F92AF92BF922E
:1002F000CF92DF92EF92FF924B015C010E944F017F
:100300006B017C010E944F016C197D098E099F09C8
:10031000683E734081059105A8F321E0821A910897
:10032000A108B10888EEC80E83E0D81EE11CF11CBC
:1003300081149104A104B10429F7FF90EF90DF909C
:10034000CF90BF90AF909F908F900895AF92BF9243
:10035000CF92DF92EF92FF920F931F93CF93DF9391
:100360006C017B018B01040F151FEB015E01AE18C0
:10037000BF08C017D10759F06991D601ED91FC91E2
:100380000190F081E02DC6010995892B79F7C5010F
:10039000DF91CF911F910F91FF90EF90DF90CF9061
:1003A000BF90AF900895089590E080E008958F92F7
:1003B0009F92AF92BF920F931F93CF93DF93CDB7CE
:1003C000DEB7A1970FB6F894DEBF0FBECDBF19A25E
:1003D000423008F44AE08E010F5D1F4F842E912CAD
:1003E000B12CA12CA50194010E940A06E62FB901A7
:1003F000CA01EA3044F5E05DD801EE938D01232B6C
:10040000242B252B79F790E080E0109769F0FD010F
:1004100001900020E9F73197AF014A1B5B0BBD014A
:1004200088EA91E00E94A601A1960FB6F894DEBF7B
:100430000FBECDBFDF91CF911F910F91BF90AF90B5
:100440009F908F900895E95CD7CFFC010190002028
:10045000E9F73197AF01481B590BBC0188EA91E0DD
:100460000C94A601CF93DF93EC0160E08E810E9493
:10047000DE0061E08E810E94DE0060E08E810E94DD
:10048000DE008BE891E00197F1F7DF91CF910895BD
:10049000CF92DF92EF92FF920F931F93CF93DF9350
:1004A0006C017C0187E0E80EF11CD0E0C0E0062F73
:1004B00010E0B8010C2E02C0759567950A94E2F71A
:1004C0006170F70181917F010E94DE002196C430A6
:1004D000D10579F7C601DF91CF911F910F91FF9060
:1004E000EF90DF90CF900C943202CF92DF92EF9298
:1004F000FF920F931F93CF93DF93EC01F62E642F9F
:100500008C810E94DE008D818F3F19F060E00E9497
:10051000DE000F2D10E08F8584FF25C06E0187E07F
:10052000C80ED11CF12CE12CB8010E2C02C075951F
:1005300067950A94E2F76170F60181916F010E945C
:10054000DE00FFEFEF1AFF0A88E0E816F10461F71A
:10055000CE01DF91CF911F910F91FF90EF90DF902F
:10056000CF900C943202B80184E0759567958A9516
:10057000E1F7CE010E9448026F2DCE01DF91CF91AD
:100580001F910F91FF90EF90DF90CF900C94480255
:1005900040E0682F88EA91E00C947502CF93DF93D6
:1005A000613029F09091B70198609093B701609302
:1005B000BB011092BC0190E49093BD018093BE01F9
:1005C000805C8093BF0161E08091AC010E940C01CE
:1005D0008091AD018F3F19F061E00E940C0161E054
:1005E0008091AE010E940C01C8EAD1E09E01285A18
:1005F00031408091B70184FD0BC084E090E02196EA
:100600002817390744F461E08E810E940C01EECF77
:1006100088E090E0F4CF8BE39DE00197F1F760E094
:100620008091AC010E94DE0060E08091AE010E94EA
:10063000DE008091AD018F3F19F060E00E94DE0086
:100640008091B70184FD39C063E088EA91E00E949F
:100650004802CBE4D6E4CE010197F1F763E088EAE3
:1006600091E00E9448022197F1F763E088EA91E067
:100670000E94480283E592E00197F1F762E088EA80
:1006800091E00E9448028091B70180620E94C802F6
:1006900084E08093B8018CE00E94C80281E00E944F
:1006A000C8028BE39FE10197F1F782E08093B901E3
:1006B00086E0DF91CF910C94C80280620E94C8024C
:1006C0008BE496E40197F1F78091B70180620E9474
:1006D000C80283E592E00197F1F78091B70180624B
:1006E0000E94C802D0CF9091BB01691710F06FEF44
:1006F000690FE62FF0E0E855FE4F9489890F806876
:100700000C94C80241E00E94750281E090E00895D7
:10071000CF92DF92EF92FF926C01990FEE08FF08E3
:10072000F7FE16C041E06DE288EA91E00E94750292
:1007300066277727CB016C197D098E099F094AE04E
:100740000E94D7010196FF90EF90DF90CF9008951F
:100750004AE0C701B601FF90EF90DF90CF900C9474
:10076000D7011F920F920FB60F9211242F933F9330
:100770008F939F93AF93BF938091A0019091A1011C
:10078000A091A201B091A30130919F0123E0230F1A
:100790002D3758F50196A11DB11D20939F0180931F
:1007A000A0019093A101A093A201B093A301809115
:1007B000A4019091A501A091A601B091A701019675
:1007C000A11DB11D8093A4019093A501A093A60142
:1007D000B093A701BF91AF919F918F913F912F91BE
:1007E0000F900FBE0F901F90189526E8230F0296CA
:1007F000A11DB11DD2CFCF93DF9300D000D0CDB7D4
:10080000DEB7789484B5826084BD84B5816084BD90
:1008100085B5826085BD85B5816085BD80916E009E
:10082000816080936E0010928100809181008260CF
:10083000809381008091810081608093810080910C
:1008400080008160809380008091B10084608093FB
:10085000B1008091B00081608093B00080917A00F7
:10086000846080937A0080917A00826080937A001D
:1008700080917A00816080937A0080917A0080680C
:1008800080937A001092C10060E082E00E940C0127
:1008900064E084E10E94CE0260E080E00E94730385
:1008A0008CE091E00E94250244244A9423E0522ED9
:1008B000612C712C8FE00E943D019A83898380E135
:1008C0000E943D011C0182E00E94B5006C01109263
:1008D0009A0110929B0110929C0110929D0110921E
:1008E0009E0161E08EE00E940C0160E08EE00E94BB
:1008F000DE0064E170E080E090E00E94740161E05D
:100900008EE00E94DE008BE990E00197F1F760E055
:100910008EE00E940C0101E117E28EE00E94B5001A
:10092000892B09F0B8C001501109B9F760919601FF
:100930007091970180919801909199010E943B06D6
:100940004B0161E080E00E94730382E291E00E942B
:100950002502C4010E94880388E291E00E942502DA
:100960006091920170919301809194019091950111
:100970000E943B064B0161E08BE00E9473038CE216
:1009800091E00E942502C4010E94880380E391E067
:100990000E94250262E08BE00E94730384E391E0F1
:1009A0000E94250229813A81B901330F880B990BE6
:1009B0000E94730626E636E646E050E40E94D7061B
:1009C0000E943B06CB010E94880388E391E00E94CD
:1009D000250262E080E00E9473038DE391E00E94B3
:1009E000250224E630E0D1010E946C07A3019201A8
:1009F0000E94EB05C9010E94880383E491E00E94F4
:100A0000250263E080E0CA94CD2809F0BEC00E94B0
:100A1000730386E491E00E94250262E370E080E0C7
:100A200090E00E94740163E080E00E94730384E51B
:100A300091E00E94250262E370E080E090E00E9475
:100A4000740163E080E00E94730383E691E00E94FA
:100A5000250262E370E080E090E00E94740163E0B0
:100A600080E00E94730382E791E00E94250262E326
:100A700070E080E090E00E9474016AE070E080E045
:100A800090E00E94740180E090E0892B09F412CF7D
:100A90000E9400000FCF01E117E28EE00E94B50036
:100AA000019721F401501109C1F740CF08E210E08D
:100AB00027E02B831C8291E1E92E97E2F92E8EE04C
:100AC0000E94B500892B29F431E0E31AF108B9F747
:100AD0002DCF0E944F014B015C0181E1E82E87E29E
:100AE000F82E8EE00E94B500019729F481E0E81A03
:100AF000F108B9F71BCF0E944F01681979098A09DB
:100B00009B09693271058105910580F09C81E92F6F
:100B1000F0E0EE56FE4F208581E090E00B8002C0B1
:100B2000880F991F0A94E2F7822B80872B8121116D
:100B300028C03C813F5F3C8387E08B8301501109D3
:100B400009F0B9CF60919A0170E090E080E00E94D6
:100B50007106609392017093930180939401909336
:100B6000950160919C0170E090E080E00E94710628
:100B700060939601709397018093980190939901E7
:100B8000D5CE9B8191509B83D9CF0E94730382E87D
:100B900091E00E94250271CFE8EAF1E0138212820F
:100BA00084E091E0918380838DE084838FEF85835F
:100BB0008CE086838BE087838AE0808789E0818769
:100BC00088E082871386148615861686178661E06C
:100BD00080E10C94CE02052E97FB1EF400940E9437
:100BE000020657FD07D00E940A0607FC03D04EF408
:100BF0000C94020650954095309521953F4F4F4FEC
:100C00005F4F089590958095709561957F4F8F4FB8
:100C10009F4F0895A1E21A2EAA1BBB1BFD010DC018
:100C2000AA1FBB1FEE1FFF1FA217B307E407F5079C
:100C300020F0A21BB30BE40BF50B661F771F881F78
:100C4000991F1A9469F760957095809590959B010E
:100C5000AC01BD01CF010895A29FB001B39FC001B7
:100C6000A39F700D811D1124911DB29F700D811DD8
:100C70001124911D08950E9442066894B1110C94AC
:100C8000D10608950E94B60688F09F5798F0B92FB4
:100C90009927B751B0F0E1F0660F771F881F991FB1
:100CA0001AF0BA95C9F714C0B13091F00E94D0067D
:100CB000B1E008950C94D006672F782F8827B85F8D
:100CC00039F0B93FCCF3869577956795B395D9F709
:100CD0003EF490958095709561957F4F8F4F9F4F13
:100CE0000895E89409C097FB3EF49095809570951F
:100CF00061957F4F8F4F9F4F9923A9F0F92F96E968
:100D0000BB279395F695879577956795B795F111DC
:100D1000F8CFFAF4BB0F11F460FF1BC06F5F7F4F79
:100D20008F4F9F4F16C0882311F096E911C077238B
:100D300021F09EE8872F762F05C0662371F096E894
:100D4000862F70E060E02AF09A95660F771F881F63
:100D5000DAF7880F9695879597F9089557FD90587B
:100D6000440F551F59F05F3F71F04795880F97FB6F
:100D7000991F61F09F3F79F0879508951216130629
:100D80001406551FF2CF4695F1DF08C01616170658
:100D90001806991FF1CF869571056105089408958D
:100DA000E894BB2766277727CB0197F908950E941F
:100DB000EA060C945B070E944D0738F00E94540726
:100DC00020F0952311F00C9444070C944A07112449
:100DD0000C94D1060E94AE0670F3959FC1F3950F57
:100DE00050E0551F629FF001729FBB27F00DB11DAF
:100DF000639FAA27F00DB11DAA1F649F6627B00D3F
:100E0000A11D661F829F2227B00DA11D621F739F27
:100E1000B00DA11D621F839FA00D611D221F749F35
:100E20003327A00D611D231F849F600D211D822F7C
:100E3000762F6A2F11249F5750409AF0F1F08823A3
:100E40004AF0EE0FFF1FBB1F661F771F881F9150D0
:100E50005040A9F79E3F510580F00C9444070C9434
:100E6000D1065F3FE4F3983ED4F386957795679576
:100E7000B795F795E7959F5FC1F7FE2B880F911DFA
:100E80009695879597F9089597F99F6780E870E0A0
:100E900060E008959FEF80EC089500240A941616F0
:100EA000170618060906089500240A941216130658
:100EB000140605060895092E0394000C11F48823E6
:100EC00052F0BB0F40F4BF2B11F460FF04C06F5F02
:100ED0007F4F8F4F9F4F08950E942C06B7FF0895B4
:100EE000821B930B0895EE0FFF1F0590F491E02DE8
:060EF0000994F894FFCF05
:100EF600000000008203A601D401D301202057453B
:100F060041544845522053544154494F4E202020C5
:100F160020002020544D3A0043202000484D3A003E
:100F2600252020004C493A004C7820200020204102
:100F36004D3A0025200020205241494E494E472077
:100F46002020200020205241494E494E472E202085
:100F560020200020205241494E494E472E2E202067
:100F6600200020205241494E494E472E2E2E202049
:100F7600200020204E4F205241494E202020202084
:020F8600000069
:00000001FF
