:100000000C945E000C9486000C9486000C94860080
:100010000C9486000C9486000C9486000C94860048
:100020000C9486000C9486000C9486000C94860038
:100030000C9486000C9486000C9486000C94860028
:100040000C9402040C9486000C9472040C944C04DE
:100050000C9486000C9486000C9486000C94860008
:100060000C9486000C948600000000080002010039
:100070000003040700000000000000000000000072
:10008000250028002B0000000000240027002A0083
:10009000040404040404040402020202020203032E
:1000A0000303030301020408102040800102040836
:1000B0001020010204081020A404FB0611241FBE16
:1000C000CFEFD8E0DEBFCDBF22E0A2E3B2E001C0B7
:1000D0001D92AC3FB207E1F712E0A0E0B1E0E2E927
:1000E000F2E102C005900D92A233B107D9F710E0FA
:1000F000CDE5D0E004C02197FE010E943B07CC353E
:10010000D107C9F70E9445050C943C090C940000E6
:1001100090E0FC01EC55FF4F249180579F4FFC016C
:100120008491882399F090E0880F991FFC01EA5789
:10013000FF4FA591B491FC01E458FF4F8591949134
:100140008FB7F894EC91E22BEC938FBF089590E079
:10015000FC01E859FF4F2491FC01EC55FF4F34910D
:10016000FC01E057FF4FE491EE23C9F0222339F060
:10017000233001F1A8F4213019F1223029F1F0E007
:10018000EE0FFF1FE458FF4FA591B4918FB7F8947D
:10019000EC91611126C030953E233C938FBF0895AA
:1001A0002730A9F02830C9F0243049F78091800029
:1001B0008F7D03C0809180008F7780938000DFCF98
:1001C00084B58F7784BDDBCF84B58F7DFBCF8091E5
:1001D000B0008F778093B000D2CF8091B0008F7D38
:1001E000F9CF3E2BDACF3FB7F89480913902909146
:1001F0003A02A0913B02B0913C0226B5A89B05C0F3
:100200002F3F19F00196A11DB11D3FBFBA2FA92F95
:10021000982F8827BC01CD01620F711D811D911D92
:1002200042E0660F771F881F991F4A95D1F70895FE
:100230008F929F92AF92BF92CF92DF92EF92FF92F6
:100240006B017C010E94F3004B015C01C114D104DD
:10025000E104F104B9F00E94F300681979098A09F0
:100260009B09683E73408105910580F321E0C21A25
:10027000D108E108F10888EE880E83E0981EA11CE1
:10028000B11CE4CFFF90EF90DF90CF90BF90AF9084
:100290009F908F900895AF92BF92CF92DF92EF928E
:1002A000FF920F931F93CF93DF936C017B018B0120
:1002B000040F151FEB015E01AE18BF08C017D10770
:1002C00059F06991D601ED91FC910190F081E02DFA
:1002D000C6010995892B79F7C501DF91CF911F914F
:1002E0000F91FF90EF90DF90CF90BF90AF90089567
:1002F000FC01538D448D252F30E0842F90E0821B2C
:10030000930B541710F0CF96089501970895FC01B0
:10031000918D828D981761F0A28DAE0FBF2FB11D08
:100320005D968C91928D9F5F9F73928F90E0089560
:100330008FEF9FEF0895FC01918D828D981731F01A
:10034000828DE80FF11D858D90E008958FEF9FEF6E
:100350000895FC01918D228D892F90E0805C9F4F44
:10036000821B91098F73992708958DE392E00E9473
:10037000A90121E0892B09F420E0822F089580E073
:1003800090E0892B29F00E94B50181110C940000A6
:100390000895FC01A48DA80FB92FB11DA35ABF4F1A
:1003A0002C91848D90E001968F739927848FA68974
:1003B000B7892C93A089B1898C91837080648C93C8
:1003C000938D848D981306C00288F389E02D808177
:1003D0008F7D80830895EF92FF920F931F93CF93A9
:1003E000DF93EC0181E0888F9B8D8C8D98131AC070
:1003F000E889F989808185FF15C09FB7F894EE8957
:10040000FF896083E889F9898081837080648083B3
:100410009FBF81E090E0DF91CF911F910F91FF90FE
:10042000EF900895F62E0B8D10E00F5F1F4F0F73A6
:100430001127E02E8C8D8E110CC00FB607FCFACF61
:10044000E889F989808185FFF5CFCE010E94C90135
:10045000F1CFEB8DEC0FFD2FF11DE35AFF4FF08232
:100460009FB7F8940B8FEA89FB8980818062CFCF98
:10047000CF93DF93EC01888D8823B9F0AA89BB89DB
:10048000E889F9898C9185FD03C0808186FD0DC0C6
:100490000FB607FCF7CF8C9185FFF2CF808185FFE7
:1004A000EDCFCE010E94C901E9CFDF91CF91089530
:1004B000089590E080E00895CF93DF93EC0160E031
:1004C0008E810E94A70061E08E810E94A70060E0FB
:1004D0008E810E94A7008BE891E00197F1F7DF91F0
:1004E000CF910895CF92DF92EF92FF920F931F93D7
:1004F000CF93DF936C017C0187E0E80EF11CD0E024
:10050000C0E0062F10E0B8010C2E02C0759567956B
:100510000A94E2F76170F70181917F010E94A700C0
:100520002196C430D10579F7C601DF91CF911F9193
:100530000F91FF90EF90DF90CF900C945C02CF92E0
:10054000DF92EF92FF920F931F93CF93DF93EC0113
:10055000F62E642F8C810E94A7008D818F3F19F0A9
:1005600060E00E94A7000F2D10E08F8584FF25C05A
:100570006E0187E0C80ED11CF12CE12CB8010E2CC5
:1005800002C0759567950A94E2F76170F601819152
:100590006F010E94A700FFEFEF1AFF0A88E0E8163C
:1005A000F10461F7CE01DF91CF911F910F91FF9080
:1005B000EF90DF90CF900C945C02B80184E07595C9
:1005C00067958A95E1F7CE010E9472026F2DCE01E8
:1005D000DF91CF911F910F91FF90EF90DF90CF901F
:1005E0000C94720240E0682F80EE92E00C949F021F
:1005F000CF93DF93613029F09091EF029860909350
:10060000EF026093F3021092F40290E49093F502EB
:100610008093F602805C8093F7028091E4020E944E
:1006200088008091E5028F3F11F00E948800809140
:10063000E6020E948800C0EED2E09E01205E3240B9
:100640008091EF0284FD0AC084E090E02196281793
:1006500039073CF48E810E948800EFCF88E090E05B
:10066000F5CF8BE39DE00197F1F760E08091E40224
:100670000E94A70060E08091E6020E94A70080919E
:10068000E5028F3F19F060E00E94A7008091EF0221
:1006900084FD39C063E080EE92E00E947202CBE4F8
:1006A000D6E4CE010197F1F763E080EE92E00E947C
:1006B00072022197F1F763E080EE92E00E947202ED
:1006C00083E592E00197F1F762E080EE92E00E940C
:1006D00072028091EF0280620E94F20284E08093B5
:1006E000F0028CE00E94F20281E00E94F2028BE3B1
:1006F0009FE10197F1F782E08093F10286E0DF91BC
:10070000CF910C94F20280620E94F2028BE496E494
:100710000197F1F78091EF0280620E94F20283E577
:1007200092E00197F1F78091EF0280620E94F2025D
:10073000D0CF9091F302891710F08FEF890FE82F37
:10074000F0E0E052FD4F848980680C94F20241E0B1
:100750000E949F0281E090E00895FB01019000203B
:10076000E9F73197AF01461B570BDC01ED91FC9186
:100770000280F381E02D0994BC0180EE92E00C949C
:10078000AD03CF93DF93BC018DE392E00E94AD03F4
:10079000EC0164E271E08DE392E00E94AD038C0F06
:1007A0009D1FDF91CF910895CF93DF93EC0180914E
:1007B000DA029091DB02009759F02091DC0230912F
:1007C000DD022C173D0720F081E0DF91CF910895E5
:1007D000BE016F5F7F4F0E946608009789F090937B
:1007E000DB028093DA02D093DD02C093DC02209119
:1007F000DE023091DF02232B39F7FC011082E4CFB7
:1008000080E0E3CF1F920F920FB60F9211242F9327
:100810003F938F939F93AF93BF93809135029091B5
:100820003602A0913702B09138023091340223E0B1
:10083000230F2D3758F50196A11DB11D20933402C9
:100840008093350290933602A0933702B09338021A
:100850008091390290913A02A0913B02B0913C0202
:100860000196A11DB11D8093390290933A02A09385
:100870003B02B0933C02BF91AF919F918F913F910A
:100880002F910F900FBE0F901F90189526E8230F01
:100890000296A11DB11DD2CF1F920F920FB60F92DB
:1008A00011242F933F934F935F936F937F938F9375
:1008B0009F93AF93BF93EF93FF938DE392E00E94DA
:1008C000C901FF91EF91BF91AF919F918F917F915E
:1008D0006F915F914F913F912F910F900FBE0F90AD
:1008E0001F9018951F920F920FB60F9211242F93FD
:1008F0008F939F93EF93FF93E0914D02F0914E02FF
:100900008081E0915302F091540282FD1BC09081DE
:10091000809156028F5F8F7320915702821741F0AA
:10092000E0915602F0E0E35CFD4F958F8093560214
:10093000FF91EF919F918F912F910F900FBE0F908C
:100940001F9018958081F4CF1092400210923F02C0
:1009500088EE93E0A0E0B0E08093410290934202E1
:10096000A0934302B09344028AE091E090933E0248
:1009700080933D0285EC90E090934A028093490277
:1009800084EC90E090934C0280934B0280EC90E0DA
:1009900090934E0280934D0281EC90E09093500230
:1009A00080934F0282EC90E0909352028093510228
:1009B00086EC90E09093540280935302109256027A
:1009C0001092570210925802109259021092E302AC
:1009D0001092E2028CE191E09093E1028093E002B8
:1009E0008DE08093E4028FEF8093E5028CE08093AA
:1009F000E6028BE08093E7028AE08093E80289E0D8
:100A00008093E90288E08093EA021092EB02109250
:100A1000EC021092ED021092EE021092EF0261E0F1
:100A200080E10E94F8021092DB021092DA0210922A
:100A3000DD021092DC021092DF021092DE0290E0E2
:100A400080E00E94D4032091DA023091DB02811110
:100A500013C02115310519F0C9010E94DD0710925C
:100A6000DB021092DA021092DF021092DE02109284
:100A7000DD021092DC0208951092DF021092DE0275
:100A800066E271E0C9010C943509CF93DF9300D081
:100A9000CDB7DEB7789484B5826084BD84B58160BB
:100AA00084BD85B5826085BD85B5816085BD809139
:100AB0006E00816080936E001092810080918100B1
:100AC00082608093810080918100816080938100A9
:100AD000809180008160809380008091B10084606B
:100AE0008093B1008091B00081608093B0008091CC
:100AF0007A00846080937A0080917A00826080938B
:100B00007A0080917A00816080937A0080917A00E7
:100B1000806880937A001092C100E0914D02F091BC
:100B20004E0282E08083E0914902F0914A021082F5
:100B3000E0914B02F0914C028FEC808310925502B1
:100B4000E0915102F091520286E08083E0914F02E1
:100B5000F0915002808180618083E0914F02F0919A
:100B60005002808188608083E0914F02F0915002B2
:100B7000808180688083E0914F02F09150028081F3
:100B80008F7D808385E00E94880086E00E94880037
:100B900087E00E94880087E291E00E94C10364E040
:100BA00084E10E94F80280E00E94990382E491E0CF
:100BB0000E94BC0381E00E94990386E591E00E94B7
:100BC000BC0382E00E9499038BE691E00E94BC0383
:100BD00083E00E94990385E791E00E94BC0380E0D6
:100BE000C82E80E0D82E8DE392E00E94A90118164D
:100BF00019060CF0C4C08DE392E00E9487010091B9
:100C00003202109133020F5F1F4F10933302009393
:100C1000320289831A82E090DE02F090DF028FEFC9
:100C2000E81AF80AC7010E94D403882399F020919A
:100C3000DA023091DB028091DE029091DF02BE0188
:100C40006F5F7F4F820F931F0E943509F092DF0282
:100C5000E092DE020C30110531F64091DE02509137
:100C6000DF026091DA027091DB028DE392E00E9474
:100C70004B018091DE029091DF02892B09F452C072
:100C80000091DA021091DB026FE771E0C8010E9467
:100C90002C09892B79F58CE891E00E94C10382E050
:100CA0000E94990387E991E00E94BC0383E00E94BF
:100CB000990387EA91E00E94BC0361E086E00E940C
:100CC000A70068E873E180E090E00E94180160E00E
:100CD00086E00E94A70082E00E9499038EEB91E0DB
:100CE0000E94BC0383E00E94990380ED91E00E9482
:100CF000BC0379CF62EE71E0C8010E942C09892BF8
:100D000089F48CE891E00E94C10382E00E9499037B
:100D100087E991E00E94BC0383E00E9499038FEE73
:100D200091E0C9CF8FEF91E00E94C10382E00E9461
:100D300099038CE092E00E94BC0383E00E94990337
:100D40008EE192E00E94BC0361E085E00E94A70072
:100D500061E087E00E94A70064EF71E080E090E02E
:100D60000E94180160E087E00E94A70060EA7FE02F
:100D700080E090E00E94180160E085E0AACF109228
:100D800033021092320290E080E00E94D40320915E
:100D9000DA023091DB02811124C02115310519F0EE
:100DA000C9010E94DD071092DB021092DA02109254
:100DB000DF021092DE021092DD021092DC0264EF7C
:100DC00071E080E090E00E941801C114D10409F4A0
:100DD0000ACF0E94B501882309F405CF0E940000C4
:100DE00002CF1092DF021092DE0266E271E0C901CA
:100DF0000E943509E4CF8091DA029091DB020097DE
:100E000011F00C94DD0708952F923F924F925F925C
:100E10006F927F928F929F92AF92BF92CF92DF920A
:100E2000EF92FF920F931F93CF93DF93CDB7DEB76F
:100E3000CA1BDB0B0FB6F894DEBF0FBECDBF099403
:100E40002A88398848885F846E847D848C849B845A
:100E5000AA84B984C884DF80EE80FD800C811B8168
:100E6000AA81B981CE0FD11D0FB6F894DEBF0FBE97
:100E7000CDBFED010895EE0FFF1F0590F491E02D19
:100E800009940F931F93CF93DF938230910510F451
:100E900082E090E0E091FA02F091FB0230E020E085
:100EA000B0E0A0E0309799F42115310509F44AC06B
:100EB000281B390B24303105D8F58A819B816115B7
:100EC000710589F1FB0193838283FE0111C040818A
:100ED00051810281138148175907E0F048175907DB
:100EE00099F4109761F012960C93129713961C9335
:100EF0003296CF01DF91CF911F910F91089500930A
:100F0000FA021093FB02F4CF2115310551F042177C
:100F1000530738F0A901DB019A01BD01DF01F80197
:100F2000C1CFEF01F9CF9093FB028093FA02CDCFAE
:100F3000FE01E20FF31F819391932250310939830F
:100F40002883D7CF2091F8023091F902232B41F466
:100F500020910201309103013093F9022093F802AD
:100F600020910001309101012115310541F42DB787
:100F70003EB74091040150910501241B350BE091CF
:100F8000F802F091F902E217F307A0F42E1B3F0BD1
:100F90002817390778F0AC014E5F5F4F24173507EB
:100FA00048F04E0F5F1F5093F9024093F80281936F
:100FB00091939FCFF0E0E0E09CCFCF93DF93009739
:100FC000E9F0FC01329713821282A091FA02B091EB
:100FD000FB02ED0130E020E01097A1F42081318187
:100FE000820F931F2091F8023091F90228173907D8
:100FF00009F061C0F093F902E093F802DF91CF911C
:101000000895EA01CE17DF07E8F54A815B819E016A
:1010100041155105B1F7E901FB83EA8349915991E3
:10102000C40FD51FEC17FD0761F4808191810296F2
:10103000840F951FE90199838883828193819B8323
:101040008A83F0E0E0E012968D919C9113970097CF
:10105000B9F52D913C911197CD010296820F931F06
:101060002091F8023091F9022817390739F63097A4
:1010700051F51092FB021092FA02B093F902A0937C
:10108000F802BCCFD383C28340815181840F951F66
:10109000C817D90761F44E5F5F4F88819981480F67
:1010A000591F518340838A819B81938382832115B9
:1010B000310509F0B0CFF093FB02E093FA029ECF26
:1010C000FD01DC01C0CF13821282D7CFB0E0A0E0D7
:1010D000ECE6F8E00C9406078C01009751F4CB0184
:1010E0000E9441078C01C801CDB7DEB7E0E10C9446
:1010F0002207FC01E60FF71F9C0122503109E2177D
:10110000F30708F49DC0D901CD91DC911197C61762
:10111000D70798F0C530D10530F3CE010497861774
:10112000970708F3C61BD70B2297C193D1936D93F2
:101130007C93CF010E94DD07D6CF5B01AC1ABD0ABC
:101140004C018C0E9D1EA091FA02B091FB02512C15
:10115000412CF12CE12C109731F58091F8029091FF
:10116000F9028815990509F05CC04616570608F083
:1011700058C08091000190910101009741F48DB712
:101180009EB74091040150910501841B950BE8170F
:10119000F90708F055C0F093F902E093F802F9015D
:1011A00071836083A0CF8D919C91119712966C9062
:1011B000129713967C901397A815B90559F56C01F1
:1011C00042E0C40ED11CCA14DB0420F1AC014A1960
:1011D0005B09DA011296159780F06282738251835F
:1011E0004083D9016D937C93E114F10471F0D70130
:1011F0001396FC93EE93129776CF22968C0F9D1F39
:10120000F90191838083F301EFCFF093FB02E09328
:10121000FA0269CF4816590608F42C017D01D30162
:101220009ACFCB010E9441077C01009749F0AE01A3
:10123000B8010E942309C8010E94DD07870153CF2E
:1012400010E000E050CFFB01DC0102C001900D92E4
:1012500041505040D8F70895FB01DC018D91019079
:1012600080190110D9F3990B0895FB01DC0101905D
:101270000D920020E1F7089510E0CDE5D0E004C024
:10128000FE010E943B072196CE35D107C9F7F8949D
:02129000FFCF8E
:101292000000FC02800000000000EB014B0178011D
:1012A2003802A90187019B0100000000A7034B013E
:1012B200590258020D0A00506C6561736520736310
:1012C200616E20796F7572205246494420436172E3
:1012D2006400202054484520425249474854204C3B
:1012E2004947485420002052464944204241534530
:1012F20044204C4F434B2053595300204341524406
:101302003A20202000204E414D453A20202000481E
:101312004A4B4C39373533514C43440056616C6962
:101322006420436172640020434152443A20564192
:101332004C494420202000204E414D453A2048612E
:101342007273686974612053696E67682000204374
:101352004152443A2020202020202020202020001A
:10136200204E414D453A20202020202020202020C0
:101372002000414C4444393337324C524B47002011
:101382004E414D453A2044494D504C45202000499C
:101392006E76616C6964204361726400204341523D
:1013A200443A20494E56414C494420202000204EC8
:1013B200414D453A20554E4B4E4F574E202020204E
:0213C200200009
:00000001FF
